{
  "contractName": "MyContract",
  "abi": [
    {
      "inputs": [],
      "name": "fundContract",
      "outputs": [],
      "stateMutability": "payable",
      "type": "function"
    },
    {
      "inputs": [],
      "name": "getBalance",
      "outputs": [
        {
          "internalType": "uint256",
          "name": "",
          "type": "uint256"
        }
      ],
      "stateMutability": "view",
      "type": "function"
    },
    {
      "inputs": [
        {
          "internalType": "address payable",
          "name": "_recipient",
          "type": "address"
        },
        {
          "internalType": "uint256",
          "name": "_amount",
          "type": "uint256"
        }
      ],
      "name": "transferAmount",
      "outputs": [],
      "stateMutability": "payable",
      "type": "function"
    },
    {
      "inputs": [
        {
          "internalType": "address payable",
          "name": "_recipient",
          "type": "address"
        },
        {
          "internalType": "uint256",
          "name": "_amount",
          "type": "uint256"
        }
      ],
      "name": "callAmount",
      "outputs": [],
      "stateMutability": "payable",
      "type": "function"
    }
  ],
  "bytecode": "0x608060405234801561000f575f80fd5b506103958061001d5f395ff3fe60806040526004361061003e575f3560e01c806303a451891461004257806312065fe01461005e578063bd097e2114610088578063d7081e0314610092575b5f80fd5b61005c60048036038101906100579190610240565b6100ae565b005b348015610069575f80fd5b5061007261015e565b60405161007f919061028d565b60405180910390f35b610090610165565b005b6100ac60048036038101906100a79190610240565b610167565b005b5f808373ffffffffffffffffffffffffffffffffffffffff16836040516100d4906102d3565b5f6040518083038185875af1925050503d805f811461010e576040519150601f19603f3d011682016040523d82523d5f602084013e610113565b606091505b509150915081610158576040517f08c379a000000000000000000000000000000000000000000000000000000000815260040161014f90610341565b60405180910390fd5b50505050565b5f47905090565b565b8173ffffffffffffffffffffffffffffffffffffffff166108fc8290811502906040515f60405180830381858888f193505050501580156101aa573d5f803e3d5ffd5b505050565b5f80fd5b5f73ffffffffffffffffffffffffffffffffffffffff82169050919050565b5f6101dc826101b3565b9050919050565b6101ec816101d2565b81146101f6575f80fd5b50565b5f81359050610207816101e3565b92915050565b5f819050919050565b61021f8161020d565b8114610229575f80fd5b50565b5f8135905061023a81610216565b92915050565b5f8060408385031215610256576102556101af565b5b5f610263858286016101f9565b92505060206102748582860161022c565b9150509250929050565b6102878161020d565b82525050565b5f6020820190506102a05f83018461027e565b92915050565b5f81905092915050565b50565b5f6102be5f836102a6565b91506102c9826102b0565b5f82019050919050565b5f6102dd826102b3565b9150819050919050565b5f82825260208201905092915050565b7f5472616e73616374696f6e204661696c656421000000000000000000000000005f82015250565b5f61032b6013836102e7565b9150610336826102f7565b602082019050919050565b5f6020820190508181035f8301526103588161031f565b905091905056fea26469706673582212201584e1ffc08ac277570d1be43b2df07f8a9e3de4cf8644dff1c8d811cbfab4ce64736f6c63430008150033",
  "immutableReferences": {},
  "source": "pragma solidity ^0.8.0;\n\ncontract MyContract {\n\n    function fundContract() external payable {\n\n    }\n\n    function getBalance() public view returns(uint){\n        return address(this).balance;\n    }\n\n    function transferAmount(address payable _recipient, uint _amount) external payable {\n        _recipient.transfer(_amount);\n    }\n\n    function callAmount(address payable _recipient, uint _amount) external payable {\n        (bool success,  bytes memory data) = _recipient.call{value:_amount}(\"\");\n        require(success, \"Transaction Failed!\");\n\n    }\n\n}\n\n\n\n",
  "sourcePath": "/Users/sergeguea/My-Blochain-solidity/contracts/MyContract.sol",
  "compiler": {
    "name": "solc",
    "version": "0.8.21+commit.d9974bed.Emscripten.clang"
  },
  "schemaVersion": "3.4.15",
  "updatedAt": "2023-08-17T00:10:35.884Z",
  "devdoc": {
    "kind": "dev",
    "methods": {},
    "version": 1
  },
  "userdoc": {
    "kind": "user",
    "methods": {},
    "version": 1
  }
}